{
  "contractName": "FreelanceMarketplace",
  "abi": [
    {
      "inputs": [],
      "stateMutability": "nonpayable",
      "type": "constructor"
    },
    {
      "anonymous": false,
      "inputs": [
        {
          "indexed": true,
          "internalType": "uint256",
          "name": "jobId",
          "type": "uint256"
        },
        {
          "indexed": true,
          "internalType": "address",
          "name": "freelancer",
          "type": "address"
        },
        {
          "indexed": false,
          "internalType": "uint256",
          "name": "amount",
          "type": "uint256"
        },
        {
          "indexed": false,
          "internalType": "uint256",
          "name": "timeRequired",
          "type": "uint256"
        }
      ],
      "name": "BidPlaced",
      "type": "event"
    },
    {
      "anonymous": false,
      "inputs": [
        {
          "indexed": true,
          "internalType": "address",
          "name": "client",
          "type": "address"
        },
        {
          "indexed": false,
          "internalType": "string",
          "name": "name",
          "type": "string"
        }
      ],
      "name": "ClientRegistered",
      "type": "event"
    },
    {
      "anonymous": false,
      "inputs": [
        {
          "indexed": true,
          "internalType": "uint256",
          "name": "jobId",
          "type": "uint256"
        },
        {
          "indexed": true,
          "internalType": "address",
          "name": "client",
          "type": "address"
        }
      ],
      "name": "DisputeRaised",
      "type": "event"
    },
    {
      "anonymous": false,
      "inputs": [
        {
          "indexed": true,
          "internalType": "uint256",
          "name": "jobId",
          "type": "uint256"
        },
        {
          "indexed": false,
          "internalType": "bool",
          "name": "paidFreelancer",
          "type": "bool"
        },
        {
          "indexed": false,
          "internalType": "uint256",
          "name": "winnerPaid",
          "type": "uint256"
        },
        {
          "indexed": false,
          "internalType": "uint256",
          "name": "fee",
          "type": "uint256"
        }
      ],
      "name": "DisputeResolved",
      "type": "event"
    },
    {
      "anonymous": false,
      "inputs": [
        {
          "indexed": true,
          "internalType": "address",
          "name": "arbiter",
          "type": "address"
        },
        {
          "indexed": false,
          "internalType": "uint256",
          "name": "amount",
          "type": "uint256"
        }
      ],
      "name": "FeesWithdrawn",
      "type": "event"
    },
    {
      "anonymous": false,
      "inputs": [
        {
          "indexed": true,
          "internalType": "uint256",
          "name": "jobId",
          "type": "uint256"
        },
        {
          "indexed": true,
          "internalType": "address",
          "name": "client",
          "type": "address"
        },
        {
          "indexed": true,
          "internalType": "address",
          "name": "freelancer",
          "type": "address"
        },
        {
          "indexed": false,
          "internalType": "uint256",
          "name": "amount",
          "type": "uint256"
        }
      ],
      "name": "FreelancerHired",
      "type": "event"
    },
    {
      "anonymous": false,
      "inputs": [
        {
          "indexed": true,
          "internalType": "address",
          "name": "freelancer",
          "type": "address"
        },
        {
          "indexed": false,
          "internalType": "string",
          "name": "name",
          "type": "string"
        }
      ],
      "name": "FreelancerRegistered",
      "type": "event"
    },
    {
      "anonymous": false,
      "inputs": [
        {
          "indexed": true,
          "internalType": "uint256",
          "name": "jobId",
          "type": "uint256"
        },
        {
          "indexed": true,
          "internalType": "address",
          "name": "client",
          "type": "address"
        },
        {
          "indexed": false,
          "internalType": "string",
          "name": "title",
          "type": "string"
        },
        {
          "indexed": false,
          "internalType": "uint256",
          "name": "maxBudget",
          "type": "uint256"
        },
        {
          "indexed": false,
          "internalType": "uint256",
          "name": "deadline",
          "type": "uint256"
        }
      ],
      "name": "JobPosted",
      "type": "event"
    },
    {
      "anonymous": false,
      "inputs": [
        {
          "indexed": true,
          "internalType": "uint256",
          "name": "jobId",
          "type": "uint256"
        },
        {
          "indexed": true,
          "internalType": "address",
          "name": "client",
          "type": "address"
        },
        {
          "indexed": true,
          "internalType": "address",
          "name": "freelancer",
          "type": "address"
        },
        {
          "indexed": false,
          "internalType": "uint256",
          "name": "paidToFreelancer",
          "type": "uint256"
        },
        {
          "indexed": false,
          "internalType": "uint256",
          "name": "fee",
          "type": "uint256"
        }
      ],
      "name": "WorkApproved",
      "type": "event"
    },
    {
      "anonymous": false,
      "inputs": [
        {
          "indexed": true,
          "internalType": "uint256",
          "name": "jobId",
          "type": "uint256"
        },
        {
          "indexed": true,
          "internalType": "address",
          "name": "freelancer",
          "type": "address"
        }
      ],
      "name": "WorkMarkedCompleted",
      "type": "event"
    },
    {
      "inputs": [],
      "name": "arbiter",
      "outputs": [
        {
          "internalType": "address",
          "name": "",
          "type": "address"
        }
      ],
      "stateMutability": "view",
      "type": "function",
      "constant": true
    },
    {
      "inputs": [],
      "name": "collectedFees",
      "outputs": [
        {
          "internalType": "uint256",
          "name": "",
          "type": "uint256"
        }
      ],
      "stateMutability": "view",
      "type": "function",
      "constant": true
    },
    {
      "inputs": [
        {
          "internalType": "uint256",
          "name": "",
          "type": "uint256"
        },
        {
          "internalType": "uint256",
          "name": "",
          "type": "uint256"
        }
      ],
      "name": "jobBids",
      "outputs": [
        {
          "internalType": "address",
          "name": "freelancer",
          "type": "address"
        },
        {
          "internalType": "uint256",
          "name": "amount",
          "type": "uint256"
        },
        {
          "internalType": "uint256",
          "name": "timeRequired",
          "type": "uint256"
        }
      ],
      "stateMutability": "view",
      "type": "function",
      "constant": true
    },
    {
      "inputs": [],
      "name": "jobCount",
      "outputs": [
        {
          "internalType": "uint256",
          "name": "",
          "type": "uint256"
        }
      ],
      "stateMutability": "view",
      "type": "function",
      "constant": true
    },
    {
      "inputs": [
        {
          "internalType": "uint256",
          "name": "",
          "type": "uint256"
        }
      ],
      "name": "jobs",
      "outputs": [
        {
          "internalType": "uint256",
          "name": "id",
          "type": "uint256"
        },
        {
          "internalType": "address",
          "name": "client",
          "type": "address"
        },
        {
          "internalType": "string",
          "name": "title",
          "type": "string"
        },
        {
          "internalType": "string",
          "name": "category",
          "type": "string"
        },
        {
          "internalType": "uint256",
          "name": "maxBudget",
          "type": "uint256"
        },
        {
          "internalType": "uint256",
          "name": "deadline",
          "type": "uint256"
        },
        {
          "internalType": "enum FreelanceMarketplace.JobStatus",
          "name": "status",
          "type": "uint8"
        },
        {
          "internalType": "address",
          "name": "freelancer",
          "type": "address"
        },
        {
          "internalType": "uint256",
          "name": "agreedAmount",
          "type": "uint256"
        }
      ],
      "stateMutability": "view",
      "type": "function",
      "constant": true
    },
    {
      "inputs": [
        {
          "internalType": "address",
          "name": "",
          "type": "address"
        }
      ],
      "name": "users",
      "outputs": [
        {
          "internalType": "string",
          "name": "name",
          "type": "string"
        },
        {
          "internalType": "enum FreelanceMarketplace.Role",
          "name": "role",
          "type": "uint8"
        },
        {
          "internalType": "uint256",
          "name": "reputation",
          "type": "uint256"
        },
        {
          "internalType": "bool",
          "name": "registered",
          "type": "bool"
        }
      ],
      "stateMutability": "view",
      "type": "function",
      "constant": true
    },
    {
      "inputs": [
        {
          "internalType": "string",
          "name": "_name",
          "type": "string"
        }
      ],
      "name": "registerClient",
      "outputs": [],
      "stateMutability": "nonpayable",
      "type": "function"
    },
    {
      "inputs": [
        {
          "internalType": "string",
          "name": "_name",
          "type": "string"
        }
      ],
      "name": "registerFreelancer",
      "outputs": [],
      "stateMutability": "nonpayable",
      "type": "function"
    },
    {
      "inputs": [
        {
          "internalType": "string",
          "name": "_title",
          "type": "string"
        },
        {
          "internalType": "string",
          "name": "_category",
          "type": "string"
        },
        {
          "internalType": "uint256",
          "name": "_budget",
          "type": "uint256"
        },
        {
          "internalType": "uint256",
          "name": "_deadline",
          "type": "uint256"
        }
      ],
      "name": "postJob",
      "outputs": [],
      "stateMutability": "nonpayable",
      "type": "function"
    },
    {
      "inputs": [
        {
          "internalType": "uint256",
          "name": "_jobId",
          "type": "uint256"
        },
        {
          "internalType": "uint256",
          "name": "_amount",
          "type": "uint256"
        },
        {
          "internalType": "uint256",
          "name": "_time",
          "type": "uint256"
        }
      ],
      "name": "placeBid",
      "outputs": [],
      "stateMutability": "nonpayable",
      "type": "function"
    },
    {
      "inputs": [
        {
          "internalType": "uint256",
          "name": "_jobId",
          "type": "uint256"
        },
        {
          "internalType": "uint256",
          "name": "_bidIndex",
          "type": "uint256"
        }
      ],
      "name": "hireFreelancer",
      "outputs": [],
      "stateMutability": "payable",
      "type": "function",
      "payable": true
    },
    {
      "inputs": [
        {
          "internalType": "uint256",
          "name": "_jobId",
          "type": "uint256"
        }
      ],
      "name": "markWorkCompleted",
      "outputs": [],
      "stateMutability": "nonpayable",
      "type": "function"
    },
    {
      "inputs": [
        {
          "internalType": "uint256",
          "name": "_jobId",
          "type": "uint256"
        }
      ],
      "name": "approveWork",
      "outputs": [],
      "stateMutability": "nonpayable",
      "type": "function"
    },
    {
      "inputs": [
        {
          "internalType": "uint256",
          "name": "_jobId",
          "type": "uint256"
        }
      ],
      "name": "raiseDispute",
      "outputs": [],
      "stateMutability": "nonpayable",
      "type": "function"
    },
    {
      "inputs": [
        {
          "internalType": "uint256",
          "name": "_jobId",
          "type": "uint256"
        },
        {
          "internalType": "bool",
          "name": "payFreelancer",
          "type": "bool"
        }
      ],
      "name": "resolveDispute",
      "outputs": [],
      "stateMutability": "nonpayable",
      "type": "function"
    },
    {
      "inputs": [
        {
          "internalType": "address payable",
          "name": "_to",
          "type": "address"
        },
        {
          "internalType": "uint256",
          "name": "_amount",
          "type": "uint256"
        }
      ],
      "name": "withdrawFees",
      "outputs": [],
      "stateMutability": "nonpayable",
      "type": "function"
    }
  ],
  "bytecode": "0x6080604052600060015560006002553480156200001b57600080fd5b50336000806101000a81548173ffffffffffffffffffffffffffffffffffffffff021916908373ffffffffffffffffffffffffffffffffffffffff16021790555060405180608001604052806040518060400160405280600581526020017f41646d696e000000000000000000000000000000000000000000000000000000815250815260200160006002811115620000b957620000b862000189565b5b81526020016000815260200160011515815250600360003373ffffffffffffffffffffffffffffffffffffffff1673ffffffffffffffffffffffffffffffffffffffff168152602001908152602001600020600082015181600001908162000122919062000432565b5060208201518160010160006101000a81548160ff0219169083600281111562000151576200015062000189565b5b02179055506040820151816002015560608201518160030160006101000a81548160ff02191690831515021790555090505062000519565b7f4e487b7100000000000000000000000000000000000000000000000000000000600052602160045260246000fd5b600081519050919050565b7f4e487b7100000000000000000000000000000000000000000000000000000000600052604160045260246000fd5b7f4e487b7100000000000000000000000000000000000000000000000000000000600052602260045260246000fd5b600060028204905060018216806200023a57607f821691505b60208210810362000250576200024f620001f2565b5b50919050565b60008190508160005260206000209050919050565b60006020601f8301049050919050565b600082821b905092915050565b600060088302620002ba7fffffffffffffffffffffffffffffffffffffffffffffffffffffffffffffffff826200027b565b620002c686836200027b565b95508019841693508086168417925050509392505050565b6000819050919050565b6000819050919050565b6000620003136200030d6200030784620002de565b620002e8565b620002de565b9050919050565b6000819050919050565b6200032f83620002f2565b620003476200033e826200031a565b84845462000288565b825550505050565b600090565b6200035e6200034f565b6200036b81848462000324565b505050565b5b8181101562000393576200038760008262000354565b60018101905062000371565b5050565b601f821115620003e257620003ac8162000256565b620003b7846200026b565b81016020851015620003c7578190505b620003df620003d6856200026b565b83018262000370565b50505b505050565b600082821c905092915050565b60006200040760001984600802620003e7565b1980831691505092915050565b6000620004228383620003f4565b9150826002028217905092915050565b6200043d82620001b8565b67ffffffffffffffff811115620004595762000458620001c3565b5b62000465825462000221565b6200047282828562000397565b600060209050601f831160018114620004aa576000841562000495578287015190505b620004a1858262000414565b86555062000511565b601f198416620004ba8662000256565b60005b82811015620004e457848901518255600182019150602085019450602081019050620004bd565b8683101562000504578489015162000500601f891682620003f4565b8355505b6001600288020188555050505b505050505050565b614ca980620005296000396000f3fe6080604052600436106100f35760003560e01c8063840850d11161008a578063ad3b1b4711610059578063ad3b1b4714610331578063bb58be781461035a578063f73b60a914610383578063fe25e00a1461039f576100f3565b8063840850d11461025e5780639003adfe1461029d578063a5c1674e146102c8578063a87430ba146102f1576100f3565b80634c6448fe116100c65780634c6448fe146101ba5780635e62be25146101e35780636b6db3c01461020c57806371bf6bed14610235576100f3565b8063180aedf3146100f857806334b25ee21461013d5780633d01e0fa146101665780634c5d8a0f1461018f575b600080fd5b34801561010457600080fd5b5061011f600480360381019061011a91906130cf565b6103ca565b60405161013499989796959493929190613253565b60405180910390f35b34801561014957600080fd5b50610164600480360381019061015f9190613326565b610575565b005b34801561017257600080fd5b5061018d600480360381019061018891906130cf565b610be6565b005b34801561019b57600080fd5b506101a4611190565b6040516101b19190613366565b60405180910390f35b3480156101c657600080fd5b506101e160048036038101906101dc91906134b6565b611196565b005b3480156101ef57600080fd5b5061020a600480360381019061020591906134ff565b6113a5565b005b34801561021857600080fd5b50610233600480360381019061022e91906130cf565b611956565b005b34801561024157600080fd5b5061025c60048036038101906102579190613552565b611c4d565b005b34801561026a57600080fd5b50610285600480360381019061028091906135f1565b612031565b60405161029493929190613631565b60405180910390f35b3480156102a957600080fd5b506102b2612098565b6040516102bf9190613366565b60405180910390f35b3480156102d457600080fd5b506102ef60048036038101906102ea91906130cf565b61209e565b005b3480156102fd57600080fd5b5061031860048036038101906103139190613694565b6123aa565b6040516103289493929190613718565b60405180910390f35b34801561033d57600080fd5b50610358600480360381019061035391906137a2565b61247c565b005b34801561036657600080fd5b50610381600480360381019061037c91906134b6565b6126fc565b005b61039d600480360381019061039891906135f1565b61290a565b005b3480156103ab57600080fd5b506103b4612f5d565b6040516103c191906137e2565b60405180910390f35b60046020528060005260406000206000915090508060000154908060010160009054906101000a900473ffffffffffffffffffffffffffffffffffffffff16908060020180546104199061382c565b80601f01602080910402602001604051908101604052809291908181526020018280546104459061382c565b80156104925780601f1061046757610100808354040283529160200191610492565b820191906000526020600020905b81548152906001019060200180831161047557829003601f168201915b5050505050908060030180546104a79061382c565b80601f01602080910402602001604051908101604052809291908181526020018280546104d39061382c565b80156105205780601f106104f557610100808354040283529160200191610520565b820191906000526020600020905b81548152906001019060200180831161050357829003601f168201915b5050505050908060040154908060050154908060060160009054906101000a900460ff16908060060160019054906101000a900473ffffffffffffffffffffffffffffffffffffffff16908060070154905089565b60008054906101000a900473ffffffffffffffffffffffffffffffffffffffff1673ffffffffffffffffffffffffffffffffffffffff163373ffffffffffffffffffffffffffffffffffffffff1614610603576040517f08c379a00000000000000000000000000000000000000000000000000000000081526004016105fa906138a9565b60405180910390fd5b8160008111801561061657506001548111155b610655576040517f08c379a000000000000000000000000000000000000000000000000000000000815260040161064c90613915565b60405180910390fd5b60006004600083815260200190815260200160002060000154036106ae576040517f08c379a00000000000000000000000000000000000000000000000000000000081526004016106a590613981565b60405180910390fd5b600760009054906101000a900460ff16156106fe576040517f08c379a00000000000000000000000000000000000000000000000000000000081526004016106f5906139ed565b60405180910390fd5b6001600760006101000a81548160ff021916908315150217905550600060046000858152602001908152602001600020905060046005811115610744576107436131dc565b5b8160060160009054906101000a900460ff166005811115610768576107676131dc565b5b146107a8576040517f08c379a000000000000000000000000000000000000000000000000000000000815260040161079f90613a59565b60405180910390fd5b60008160070154116107ef576040517f08c379a00000000000000000000000000000000000000000000000000000000081526004016107e690613ac5565b60405180910390fd5b60008160070154905060058260060160006101000a81548160ff021916908360058111156108205761081f6131dc565b5b02179055506000826007018190555083156108dd57600061084082612f81565b9050600081836108509190613b14565b905081600260008282546108649190613b48565b925050819055506108998460060160019054906101000a900473ffffffffffffffffffffffffffffffffffffffff1682612fd4565b867f88eecbbf54eddf9adbeb289ef36beac8d141af4274d667ccc04a40044df75b39600183856040516108ce93929190613b7c565b60405180910390a25050610bc4565b61090b8260010160009054906101000a900473ffffffffffffffffffffffffffffffffffffffff1682612fd4565b600360008360060160019054906101000a900473ffffffffffffffffffffffffffffffffffffffff1673ffffffffffffffffffffffffffffffffffffffff1673ffffffffffffffffffffffffffffffffffffffff16815260200190815260200160002060030160009054906101000a900460ff168015610a215750600280811115610999576109986131dc565b5b600360008460060160019054906101000a900473ffffffffffffffffffffffffffffffffffffffff1673ffffffffffffffffffffffffffffffffffffffff1673ffffffffffffffffffffffffffffffffffffffff16815260200190815260200160002060010160009054906101000a900460ff166002811115610a1f57610a1e6131dc565b5b145b15610b85576014600360008460060160019054906101000a900473ffffffffffffffffffffffffffffffffffffffff1673ffffffffffffffffffffffffffffffffffffffff1673ffffffffffffffffffffffffffffffffffffffff1681526020019081526020016000206002015410610b17576014600360008460060160019054906101000a900473ffffffffffffffffffffffffffffffffffffffff1673ffffffffffffffffffffffffffffffffffffffff1673ffffffffffffffffffffffffffffffffffffffff1681526020019081526020016000206002016000828254610b0b9190613b14565b92505081905550610b84565b6000600360008460060160019054906101000a900473ffffffffffffffffffffffffffffffffffffffff1673ffffffffffffffffffffffffffffffffffffffff1673ffffffffffffffffffffffffffffffffffffffff168152602001908152602001600020600201819055505b5b847f88eecbbf54eddf9adbeb289ef36beac8d141af4274d667ccc04a40044df75b396000836000604051610bbb93929190613bf8565b60405180910390a25b50506000600760006101000a81548160ff021916908315150217905550505050565b60016002811115610bfa57610bf96131dc565b5b600360003373ffffffffffffffffffffffffffffffffffffffff1673ffffffffffffffffffffffffffffffffffffffff16815260200190815260200160002060010160009054906101000a900460ff166002811115610c5c57610c5b6131dc565b5b14610c9c576040517f08c379a0000000000000000000000000000000000000000000000000000000008152600401610c9390613c7b565b60405180910390fd5b80600081118015610caf57506001548111155b610cee576040517f08c379a0000000000000000000000000000000000000000000000000000000008152600401610ce590613915565b60405180910390fd5b6000600460008381526020019081526020016000206000015403610d47576040517f08c379a0000000000000000000000000000000000000000000000000000000008152600401610d3e90613981565b60405180910390fd5b813373ffffffffffffffffffffffffffffffffffffffff166004600083815260200190815260200160002060010160009054906101000a900473ffffffffffffffffffffffffffffffffffffffff1673ffffffffffffffffffffffffffffffffffffffff1614610dec576040517f08c379a0000000000000000000000000000000000000000000000000000000008152600401610de390613ce7565b60405180910390fd5b600760009054906101000a900460ff1615610e3c576040517f08c379a0000000000000000000000000000000000000000000000000000000008152600401610e33906139ed565b60405180910390fd5b6001600760006101000a81548160ff021916908315150217905550600060046000858152602001908152602001600020905060026005811115610e8257610e816131dc565b5b8160060160009054906101000a900460ff166005811115610ea657610ea56131dc565b5b14610ee6576040517f08c379a0000000000000000000000000000000000000000000000000000000008152600401610edd90613d53565b60405180910390fd5b600073ffffffffffffffffffffffffffffffffffffffff168160060160019054906101000a900473ffffffffffffffffffffffffffffffffffffffff1673ffffffffffffffffffffffffffffffffffffffff1603610f79576040517f08c379a0000000000000000000000000000000000000000000000000000000008152600401610f7090613dbf565b60405180910390fd5b6000816007015411610fc0576040517f08c379a0000000000000000000000000000000000000000000000000000000008152600401610fb790613ac5565b60405180910390fd5b6000610fcf8260070154612f81565b90506000818360070154610fe39190613b14565b905060038360060160006101000a81548160ff0219169083600581111561100d5761100c6131dc565b5b021790555060008360070181905550816002600082825461102e9190613b48565b92505081905550600a600360008560060160019054906101000a900473ffffffffffffffffffffffffffffffffffffffff1673ffffffffffffffffffffffffffffffffffffffff1673ffffffffffffffffffffffffffffffffffffffff16815260200190815260200160002060020160008282546110ac9190613b48565b925050819055506110e18360060160019054906101000a900473ffffffffffffffffffffffffffffffffffffffff1682612fd4565b8260060160019054906101000a900473ffffffffffffffffffffffffffffffffffffffff1673ffffffffffffffffffffffffffffffffffffffff163373ffffffffffffffffffffffffffffffffffffffff16877fd62f1e70d982cf23d6be6d5a3c2b588a9c8ea939c7f21a5ebfcd39ebdd19af148486604051611165929190613ddf565b60405180910390a45050506000600760006101000a81548160ff021916908315150217905550505050565b60015481565b600360003373ffffffffffffffffffffffffffffffffffffffff1673ffffffffffffffffffffffffffffffffffffffff16815260200190815260200160002060030160009054906101000a900460ff1615611226576040517f08c379a000000000000000000000000000000000000000000000000000000000815260040161121d90613e54565b60405180910390fd5b600081511161126a576040517f08c379a000000000000000000000000000000000000000000000000000000000815260040161126190613ec0565b60405180910390fd5b60405180608001604052808281526020016001600281111561128f5761128e6131dc565b5b81526020016000815260200160011515815250600360003373ffffffffffffffffffffffffffffffffffffffff1673ffffffffffffffffffffffffffffffffffffffff16815260200190815260200160002060008201518160000190816112f69190614082565b5060208201518160010160006101000a81548160ff02191690836002811115611322576113216131dc565b5b02179055506040820151816002015560608201518160030160006101000a81548160ff0219169083151502179055509050503373ffffffffffffffffffffffffffffffffffffffff167f1095d5bb47535aabc9770acbcd3f5f182a26902a02d9eaa8b8c1450e714120788260405161139a9190614154565b60405180910390a250565b6002808111156113b8576113b76131dc565b5b600360003373ffffffffffffffffffffffffffffffffffffffff1673ffffffffffffffffffffffffffffffffffffffff16815260200190815260200160002060010160009054906101000a900460ff16600281111561141a576114196131dc565b5b1461145a576040517f08c379a0000000000000000000000000000000000000000000000000000000008152600401611451906141c2565b60405180910390fd5b8260008111801561146d57506001548111155b6114ac576040517f08c379a00000000000000000000000000000000000000000000000000000000081526004016114a390613915565b60405180910390fd5b6000600460008381526020019081526020016000206000015403611505576040517f08c379a00000000000000000000000000000000000000000000000000000000081526004016114fc90613981565b60405180910390fd5b6000600460008681526020019081526020016000209050600060058111156115305761152f6131dc565b5b8160060160009054906101000a900460ff166005811115611554576115536131dc565b5b14611594576040517f08c379a000000000000000000000000000000000000000000000000000000000815260040161158b9061422e565b60405180910390fd5b806005015442106115da576040517f08c379a00000000000000000000000000000000000000000000000000000000081526004016115d19061429a565b60405180910390fd5b6000841161161d576040517f08c379a000000000000000000000000000000000000000000000000000000000815260040161161490614306565b60405180910390fd5b60008311611660576040517f08c379a000000000000000000000000000000000000000000000000000000000815260040161165790614372565b60405180910390fd5b80600401548411156116a7576040517f08c379a000000000000000000000000000000000000000000000000000000000815260040161169e906143de565b60405180910390fd5b6032600360003373ffffffffffffffffffffffffffffffffffffffff1673ffffffffffffffffffffffffffffffffffffffff16815260200190815260200160002060020154101561172d576040517f08c379a00000000000000000000000000000000000000000000000000000000081526004016117249061444a565b60405180910390fd5b6006600086815260200190815260200160002060003373ffffffffffffffffffffffffffffffffffffffff1673ffffffffffffffffffffffffffffffffffffffff16815260200190815260200160002060009054906101000a900460ff16156117cb576040517f08c379a00000000000000000000000000000000000000000000000000000000081526004016117c2906144b6565b60405180910390fd5b60016006600087815260200190815260200160002060003373ffffffffffffffffffffffffffffffffffffffff1673ffffffffffffffffffffffffffffffffffffffff16815260200190815260200160002060006101000a81548160ff0219169083151502179055506005600086815260200190815260200160002060405180606001604052803373ffffffffffffffffffffffffffffffffffffffff16815260200186815260200185815250908060018154018082558091505060019003906000526020600020906003020160009091909190915060008201518160000160006101000a81548173ffffffffffffffffffffffffffffffffffffffff021916908373ffffffffffffffffffffffffffffffffffffffff160217905550602082015181600101556040820151816002015550503373ffffffffffffffffffffffffffffffffffffffff16857f51db8e23b3f4479b162fd48823b8402895442b8f6cfd94f66239391881ec7b6f8686604051611947929190613ddf565b60405180910390a35050505050565b600280811115611969576119686131dc565b5b600360003373ffffffffffffffffffffffffffffffffffffffff1673ffffffffffffffffffffffffffffffffffffffff16815260200190815260200160002060010160009054906101000a900460ff1660028111156119cb576119ca6131dc565b5b14611a0b576040517f08c379a0000000000000000000000000000000000000000000000000000000008152600401611a02906141c2565b60405180910390fd5b80600081118015611a1e57506001548111155b611a5d576040517f08c379a0000000000000000000000000000000000000000000000000000000008152600401611a5490613915565b60405180910390fd5b6000600460008381526020019081526020016000206000015403611ab6576040517f08c379a0000000000000000000000000000000000000000000000000000000008152600401611aad90613981565b60405180910390fd5b60006004600084815260200190815260200160002090503373ffffffffffffffffffffffffffffffffffffffff168160060160019054906101000a900473ffffffffffffffffffffffffffffffffffffffff1673ffffffffffffffffffffffffffffffffffffffff1614611b5f576040517f08c379a0000000000000000000000000000000000000000000000000000000008152600401611b5690614522565b60405180910390fd5b60016005811115611b7357611b726131dc565b5b8160060160009054906101000a900460ff166005811115611b9757611b966131dc565b5b14611bd7576040517f08c379a0000000000000000000000000000000000000000000000000000000008152600401611bce9061458e565b60405180910390fd5b60028160060160006101000a81548160ff02191690836005811115611bff57611bfe6131dc565b5b02179055503373ffffffffffffffffffffffffffffffffffffffff16837f1a32d8e03bd220efbebf3a50f94670790cd8b8319062a1ae0dfed73dbf2e170d60405160405180910390a3505050565b60016002811115611c6157611c606131dc565b5b600360003373ffffffffffffffffffffffffffffffffffffffff1673ffffffffffffffffffffffffffffffffffffffff16815260200190815260200160002060010160009054906101000a900460ff166002811115611cc357611cc26131dc565b5b14611d03576040517f08c379a0000000000000000000000000000000000000000000000000000000008152600401611cfa90613c7b565b60405180910390fd5b6000845111611d47576040517f08c379a0000000000000000000000000000000000000000000000000000000008152600401611d3e906145fa565b60405180910390fd5b6000835111611d8b576040517f08c379a0000000000000000000000000000000000000000000000000000000008152600401611d8290614666565b60405180910390fd5b60008211611dce576040517f08c379a0000000000000000000000000000000000000000000000000000000008152600401611dc5906146d2565b60405180910390fd5b428111611e10576040517f08c379a0000000000000000000000000000000000000000000000000000000008152600401611e079061473e565b60405180910390fd5b60016000815480929190611e239061475e565b919050555060405180610120016040528060015481526020013373ffffffffffffffffffffffffffffffffffffffff16815260200185815260200184815260200183815260200182815260200160006005811115611e8457611e836131dc565b5b8152602001600073ffffffffffffffffffffffffffffffffffffffff16815260200160008152506004600060015481526020019081526020016000206000820151816000015560208201518160010160006101000a81548173ffffffffffffffffffffffffffffffffffffffff021916908373ffffffffffffffffffffffffffffffffffffffff1602179055506040820151816002019081611f269190614082565b506060820151816003019081611f3c9190614082565b506080820151816004015560a0820151816005015560c08201518160060160006101000a81548160ff02191690836005811115611f7c57611f7b6131dc565b5b021790555060e08201518160060160016101000a81548173ffffffffffffffffffffffffffffffffffffffff021916908373ffffffffffffffffffffffffffffffffffffffff16021790555061010082015181600701559050503373ffffffffffffffffffffffffffffffffffffffff166001547f7cfb1cd470afefecc916c2cbae9352892ea6f7b386017124a10389ee37ac9cfd868585604051612023939291906147a6565b60405180910390a350505050565b6005602052816000526040600020818154811061204d57600080fd5b9060005260206000209060030201600091509150508060000160009054906101000a900473ffffffffffffffffffffffffffffffffffffffff16908060010154908060020154905083565b60025481565b600160028111156120b2576120b16131dc565b5b600360003373ffffffffffffffffffffffffffffffffffffffff1673ffffffffffffffffffffffffffffffffffffffff16815260200190815260200160002060010160009054906101000a900460ff166002811115612114576121136131dc565b5b14612154576040517f08c379a000000000000000000000000000000000000000000000000000000000815260040161214b90613c7b565b60405180910390fd5b8060008111801561216757506001548111155b6121a6576040517f08c379a000000000000000000000000000000000000000000000000000000000815260040161219d90613915565b60405180910390fd5b60006004600083815260200190815260200160002060000154036121ff576040517f08c379a00000000000000000000000000000000000000000000000000000000081526004016121f690613981565b60405180910390fd5b813373ffffffffffffffffffffffffffffffffffffffff166004600083815260200190815260200160002060010160009054906101000a900473ffffffffffffffffffffffffffffffffffffffff1673ffffffffffffffffffffffffffffffffffffffff16146122a4576040517f08c379a000000000000000000000000000000000000000000000000000000000815260040161229b90613ce7565b60405180910390fd5b6000600460008581526020019081526020016000209050600260058111156122cf576122ce6131dc565b5b8160060160009054906101000a900460ff1660058111156122f3576122f26131dc565b5b14612333576040517f08c379a000000000000000000000000000000000000000000000000000000000815260040161232a90614830565b60405180910390fd5b60048160060160006101000a81548160ff0219169083600581111561235b5761235a6131dc565b5b02179055503373ffffffffffffffffffffffffffffffffffffffff16847f84a477df8a28a4276ca6dee4458a06c3015f30c477d9c949ede4e13ff8a552b460405160405180910390a350505050565b60036020528060005260406000206000915090508060000180546123cd9061382c565b80601f01602080910402602001604051908101604052809291908181526020018280546123f99061382c565b80156124465780601f1061241b57610100808354040283529160200191612446565b820191906000526020600020905b81548152906001019060200180831161242957829003601f168201915b5050505050908060010160009054906101000a900460ff16908060020154908060030160009054906101000a900460ff16905084565b60008054906101000a900473ffffffffffffffffffffffffffffffffffffffff1673ffffffffffffffffffffffffffffffffffffffff163373ffffffffffffffffffffffffffffffffffffffff161461250a576040517f08c379a0000000000000000000000000000000000000000000000000000000008152600401612501906138a9565b60405180910390fd5b600760009054906101000a900460ff161561255a576040517f08c379a0000000000000000000000000000000000000000000000000000000008152600401612551906139ed565b60405180910390fd5b6001600760006101000a81548160ff021916908315150217905550600073ffffffffffffffffffffffffffffffffffffffff168273ffffffffffffffffffffffffffffffffffffffff16036125e4576040517f08c379a00000000000000000000000000000000000000000000000000000000081526004016125db9061489c565b60405180910390fd5b60008111612627576040517f08c379a000000000000000000000000000000000000000000000000000000000815260040161261e90614306565b60405180910390fd5b60025481111561266c576040517f08c379a000000000000000000000000000000000000000000000000000000000815260040161266390614908565b60405180910390fd5b806002600082825461267e9190613b14565b9250508190555061268f8282612fd4565b8173ffffffffffffffffffffffffffffffffffffffff167fc0819c13be868895eb93e40eaceb96de976442fa1d404e5c55f14bb65a8c489a826040516126d59190613366565b60405180910390a26000600760006101000a81548160ff0219169083151502179055505050565b600360003373ffffffffffffffffffffffffffffffffffffffff1673ffffffffffffffffffffffffffffffffffffffff16815260200190815260200160002060030160009054906101000a900460ff161561278c576040517f08c379a000000000000000000000000000000000000000000000000000000000815260040161278390613e54565b60405180910390fd5b60008151116127d0576040517f08c379a00000000000000000000000000000000000000000000000000000000081526004016127c790613ec0565b60405180910390fd5b60405180608001604052808281526020016002808111156127f4576127f36131dc565b5b81526020016064815260200160011515815250600360003373ffffffffffffffffffffffffffffffffffffffff1673ffffffffffffffffffffffffffffffffffffffff168152602001908152602001600020600082015181600001908161285b9190614082565b5060208201518160010160006101000a81548160ff02191690836002811115612887576128866131dc565b5b02179055506040820151816002015560608201518160030160006101000a81548160ff0219169083151502179055509050503373ffffffffffffffffffffffffffffffffffffffff167f1700582be850ff71f6341c0e9768c45b03576a787f186451b51af237c29eab50826040516128ff9190614154565b60405180910390a250565b6001600281111561291e5761291d6131dc565b5b600360003373ffffffffffffffffffffffffffffffffffffffff1673ffffffffffffffffffffffffffffffffffffffff16815260200190815260200160002060010160009054906101000a900460ff1660028111156129805761297f6131dc565b5b146129c0576040517f08c379a00000000000000000000000000000000000000000000000000000000081526004016129b790613c7b565b60405180910390fd5b816000811180156129d357506001548111155b612a12576040517f08c379a0000000000000000000000000000000000000000000000000000000008152600401612a0990613915565b60405180910390fd5b6000600460008381526020019081526020016000206000015403612a6b576040517f08c379a0000000000000000000000000000000000000000000000000000000008152600401612a6290613981565b60405180910390fd5b823373ffffffffffffffffffffffffffffffffffffffff166004600083815260200190815260200160002060010160009054906101000a900473ffffffffffffffffffffffffffffffffffffffff1673ffffffffffffffffffffffffffffffffffffffff1614612b10576040517f08c379a0000000000000000000000000000000000000000000000000000000008152600401612b0790613ce7565b60405180910390fd5b600060046000868152602001908152602001600020905060006005811115612b3b57612b3a6131dc565b5b8160060160009054906101000a900460ff166005811115612b5f57612b5e6131dc565b5b14612b9f576040517f08c379a0000000000000000000000000000000000000000000000000000000008152600401612b969061422e565b60405180910390fd5b60056000868152602001908152602001600020805490508410612bf7576040517f08c379a0000000000000000000000000000000000000000000000000000000008152600401612bee90614974565b60405180910390fd5b6000600560008781526020019081526020016000208581548110612c1e57612c1d614994565b5b90600052602060002090600302019050600073ffffffffffffffffffffffffffffffffffffffff168160000160009054906101000a900473ffffffffffffffffffffffffffffffffffffffff1673ffffffffffffffffffffffffffffffffffffffff1603612cc1576040517f08c379a0000000000000000000000000000000000000000000000000000000008152600401612cb890614a0f565b60405180910390fd5b600280811115612cd457612cd36131dc565b5b600360008360000160009054906101000a900473ffffffffffffffffffffffffffffffffffffffff1673ffffffffffffffffffffffffffffffffffffffff1673ffffffffffffffffffffffffffffffffffffffff16815260200190815260200160002060010160009054906101000a900460ff166002811115612d5a57612d596131dc565b5b14612d9a576040517f08c379a0000000000000000000000000000000000000000000000000000000008152600401612d9190614a7b565b60405180910390fd5b81600501544210612de0576040517f08c379a0000000000000000000000000000000000000000000000000000000008152600401612dd79061429a565b60405180910390fd5b80600101543414612e26576040517f08c379a0000000000000000000000000000000000000000000000000000000008152600401612e1d90614ae7565b60405180910390fd5b8060000160009054906101000a900473ffffffffffffffffffffffffffffffffffffffff168260060160016101000a81548173ffffffffffffffffffffffffffffffffffffffff021916908373ffffffffffffffffffffffffffffffffffffffff1602179055508060010154826007018190555060018260060160006101000a81548160ff02191690836005811115612ec257612ec16131dc565b5b02179055508060000160009054906101000a900473ffffffffffffffffffffffffffffffffffffffff1673ffffffffffffffffffffffffffffffffffffffff163373ffffffffffffffffffffffffffffffffffffffff16877faf0f7d277c77141f1691b59ef14bbcb18e644f0f03b1eca4563754dfc3a961b18460010154604051612f4d9190613366565b60405180910390a4505050505050565b60008054906101000a900473ffffffffffffffffffffffffffffffffffffffff1681565b6000670de0b6b3a7640000821015612fb3576064600283612fa29190614b07565b612fac9190614b90565b9050612fcf565b6064600183612fc29190614b07565b612fcc9190614b90565b90505b919050565b60008273ffffffffffffffffffffffffffffffffffffffff1682604051612ffa90614bf2565b60006040518083038185875af1925050503d8060008114613037576040519150601f19603f3d011682016040523d82523d6000602084013e61303c565b606091505b5050905080613080576040517f08c379a000000000000000000000000000000000000000000000000000000000815260040161307790614c53565b60405180910390fd5b505050565b6000604051905090565b600080fd5b600080fd5b6000819050919050565b6130ac81613099565b81146130b757600080fd5b50565b6000813590506130c9816130a3565b92915050565b6000602082840312156130e5576130e461308f565b5b60006130f3848285016130ba565b91505092915050565b61310581613099565b82525050565b600073ffffffffffffffffffffffffffffffffffffffff82169050919050565b60006131368261310b565b9050919050565b6131468161312b565b82525050565b600081519050919050565b600082825260208201905092915050565b60005b8381101561318657808201518184015260208101905061316b565b60008484015250505050565b6000601f19601f8301169050919050565b60006131ae8261314c565b6131b88185613157565b93506131c8818560208601613168565b6131d181613192565b840191505092915050565b7f4e487b7100000000000000000000000000000000000000000000000000000000600052602160045260246000fd5b6006811061321c5761321b6131dc565b5b50565b600081905061322d8261320b565b919050565b600061323d8261321f565b9050919050565b61324d81613232565b82525050565b600061012082019050613269600083018c6130fc565b613276602083018b61313d565b8181036040830152613288818a6131a3565b9050818103606083015261329c81896131a3565b90506132ab60808301886130fc565b6132b860a08301876130fc565b6132c560c0830186613244565b6132d260e083018561313d565b6132e06101008301846130fc565b9a9950505050505050505050565b60008115159050919050565b613303816132ee565b811461330e57600080fd5b50565b600081359050613320816132fa565b92915050565b6000806040838503121561333d5761333c61308f565b5b600061334b858286016130ba565b925050602061335c85828601613311565b9150509250929050565b600060208201905061337b60008301846130fc565b92915050565b600080fd5b600080fd5b7f4e487b7100000000000000000000000000000000000000000000000000000000600052604160045260246000fd5b6133c382613192565b810181811067ffffffffffffffff821117156133e2576133e161338b565b5b80604052505050565b60006133f5613085565b905061340182826133ba565b919050565b600067ffffffffffffffff8211156134215761342061338b565b5b61342a82613192565b9050602081019050919050565b82818337600083830152505050565b600061345961345484613406565b6133eb565b90508281526020810184848401111561347557613474613386565b5b613480848285613437565b509392505050565b600082601f83011261349d5761349c613381565b5b81356134ad848260208601613446565b91505092915050565b6000602082840312156134cc576134cb61308f565b5b600082013567ffffffffffffffff8111156134ea576134e9613094565b5b6134f684828501613488565b91505092915050565b6000806000606084860312156135185761351761308f565b5b6000613526868287016130ba565b9350506020613537868287016130ba565b9250506040613548868287016130ba565b9150509250925092565b6000806000806080858703121561356c5761356b61308f565b5b600085013567ffffffffffffffff81111561358a57613589613094565b5b61359687828801613488565b945050602085013567ffffffffffffffff8111156135b7576135b6613094565b5b6135c387828801613488565b93505060406135d4878288016130ba565b92505060606135e5878288016130ba565b91505092959194509250565b600080604083850312156136085761360761308f565b5b6000613616858286016130ba565b9250506020613627858286016130ba565b9150509250929050565b6000606082019050613646600083018661313d565b61365360208301856130fc565b61366060408301846130fc565b949350505050565b6136718161312b565b811461367c57600080fd5b50565b60008135905061368e81613668565b92915050565b6000602082840312156136aa576136a961308f565b5b60006136b88482850161367f565b91505092915050565b600381106136d2576136d16131dc565b5b50565b60008190506136e3826136c1565b919050565b60006136f3826136d5565b9050919050565b613703816136e8565b82525050565b613712816132ee565b82525050565b6000608082019050818103600083015261373281876131a3565b905061374160208301866136fa565b61374e60408301856130fc565b61375b6060830184613709565b95945050505050565b600061376f8261310b565b9050919050565b61377f81613764565b811461378a57600080fd5b50565b60008135905061379c81613776565b92915050565b600080604083850312156137b9576137b861308f565b5b60006137c78582860161378d565b92505060206137d8858286016130ba565b9150509250929050565b60006020820190506137f7600083018461313d565b92915050565b7f4e487b7100000000000000000000000000000000000000000000000000000000600052602260045260246000fd5b6000600282049050600182168061384457607f821691505b602082108103613857576138566137fd565b5b50919050565b7f4f6e6c79206172626974657220616c6c6f776564000000000000000000000000600082015250565b6000613893601483613157565b915061389e8261385d565b602082019050919050565b600060208201905081810360008301526138c281613886565b9050919050565b7f4a6f6220646f6573206e6f742065786973740000000000000000000000000000600082015250565b60006138ff601283613157565b915061390a826138c9565b602082019050919050565b6000602082019050818103600083015261392e816138f2565b9050919050565b7f4a6f62206e6f7420666f756e6400000000000000000000000000000000000000600082015250565b600061396b600d83613157565b915061397682613935565b602082019050919050565b6000602082019050818103600083015261399a8161395e565b9050919050565b7f5265656e7472616e637900000000000000000000000000000000000000000000600082015250565b60006139d7600a83613157565b91506139e2826139a1565b602082019050919050565b60006020820190508181036000830152613a06816139ca565b9050919050565b7f4e6f206469737075746500000000000000000000000000000000000000000000600082015250565b6000613a43600a83613157565b9150613a4e82613a0d565b602082019050919050565b60006020820190508181036000830152613a7281613a36565b9050919050565b7f4e6f20657363726f770000000000000000000000000000000000000000000000600082015250565b6000613aaf600983613157565b9150613aba82613a79565b602082019050919050565b60006020820190508181036000830152613ade81613aa2565b9050919050565b7f4e487b7100000000000000000000000000000000000000000000000000000000600052601160045260246000fd5b6000613b1f82613099565b9150613b2a83613099565b9250828203905081811115613b4257613b41613ae5565b5b92915050565b6000613b5382613099565b9150613b5e83613099565b9250828201905080821115613b7657613b75613ae5565b5b92915050565b6000606082019050613b916000830186613709565b613b9e60208301856130fc565b613bab60408301846130fc565b949350505050565b6000819050919050565b6000819050919050565b6000613be2613bdd613bd884613bb3565b613bbd565b613099565b9050919050565b613bf281613bc7565b82525050565b6000606082019050613c0d6000830186613709565b613c1a60208301856130fc565b613c276040830184613be9565b949350505050565b7f4f6e6c7920636c69656e7420616c6c6f77656400000000000000000000000000600082015250565b6000613c65601383613157565b9150613c7082613c2f565b602082019050919050565b60006020820190508181036000830152613c9481613c58565b9050919050565b7f4e6f74206a6f6220636c69656e74000000000000000000000000000000000000600082015250565b6000613cd1600e83613157565b9150613cdc82613c9b565b602082019050919050565b60006020820190508181036000830152613d0081613cc4565b9050919050565b7f576f726b206e6f7420636f6d706c657465640000000000000000000000000000600082015250565b6000613d3d601283613157565b9150613d4882613d07565b602082019050919050565b60006020820190508181036000830152613d6c81613d30565b9050919050565b7f4e6f20667265656c616e63657200000000000000000000000000000000000000600082015250565b6000613da9600d83613157565b9150613db482613d73565b602082019050919050565b60006020820190508181036000830152613dd881613d9c565b9050919050565b6000604082019050613df460008301856130fc565b613e0160208301846130fc565b9392505050565b7f416c726561647920726567697374657265640000000000000000000000000000600082015250565b6000613e3e601283613157565b9150613e4982613e08565b602082019050919050565b60006020820190508181036000830152613e6d81613e31565b9050919050565b7f4e616d6520726571756972656400000000000000000000000000000000000000600082015250565b6000613eaa600d83613157565b9150613eb582613e74565b602082019050919050565b60006020820190508181036000830152613ed981613e9d565b9050919050565b60008190508160005260206000209050919050565b60006020601f8301049050919050565b600082821b905092915050565b600060088302613f427fffffffffffffffffffffffffffffffffffffffffffffffffffffffffffffffff82613f05565b613f4c8683613f05565b95508019841693508086168417925050509392505050565b6000613f7f613f7a613f7584613099565b613bbd565b613099565b9050919050565b6000819050919050565b613f9983613f64565b613fad613fa582613f86565b848454613f12565b825550505050565b600090565b613fc2613fb5565b613fcd818484613f90565b505050565b5b81811015613ff157613fe6600082613fba565b600181019050613fd3565b5050565b601f8211156140365761400781613ee0565b61401084613ef5565b8101602085101561401f578190505b61403361402b85613ef5565b830182613fd2565b50505b505050565b600082821c905092915050565b60006140596000198460080261403b565b1980831691505092915050565b60006140728383614048565b9150826002028217905092915050565b61408b8261314c565b67ffffffffffffffff8111156140a4576140a361338b565b5b6140ae825461382c565b6140b9828285613ff5565b600060209050601f8311600181146140ec57600084156140da578287015190505b6140e48582614066565b86555061414c565b601f1984166140fa86613ee0565b60005b82811015614122578489015182556001820191506020850194506020810190506140fd565b8683101561413f578489015161413b601f891682614048565b8355505b6001600288020188555050505b505050505050565b6000602082019050818103600083015261416e81846131a3565b905092915050565b7f4f6e6c7920667265656c616e63657220616c6c6f776564000000000000000000600082015250565b60006141ac601783613157565b91506141b782614176565b602082019050919050565b600060208201905081810360008301526141db8161419f565b9050919050565b7f4a6f62206e6f74206f70656e0000000000000000000000000000000000000000600082015250565b6000614218600c83613157565b9150614223826141e2565b602082019050919050565b600060208201905081810360008301526142478161420b565b9050919050565b7f4a6f6220646561646c696e652070617373656400000000000000000000000000600082015250565b6000614284601383613157565b915061428f8261424e565b602082019050919050565b600060208201905081810360008301526142b381614277565b9050919050565b7f416d6f756e74206d757374206265203e20300000000000000000000000000000600082015250565b60006142f0601283613157565b91506142fb826142ba565b602082019050919050565b6000602082019050818103600083015261431f816142e3565b9050919050565b7f54696d65206d757374206265203e203000000000000000000000000000000000600082015250565b600061435c601083613157565b915061436782614326565b602082019050919050565b6000602082019050818103600083015261438b8161434f565b9050919050565b7f4f76657220627564676574000000000000000000000000000000000000000000600082015250565b60006143c8600b83613157565b91506143d382614392565b602082019050919050565b600060208201905081810360008301526143f7816143bb565b9050919050565b7f4c6f772072657075746174696f6e000000000000000000000000000000000000600082015250565b6000614434600e83613157565b915061443f826143fe565b602082019050919050565b6000602082019050818103600083015261446381614427565b9050919050565b7f416c726561647920626964000000000000000000000000000000000000000000600082015250565b60006144a0600b83613157565b91506144ab8261446a565b602082019050919050565b600060208201905081810360008301526144cf81614493565b9050919050565b7f4e6f742068697265640000000000000000000000000000000000000000000000600082015250565b600061450c600983613157565b9150614517826144d6565b602082019050919050565b6000602082019050818103600083015261453b816144ff565b9050919050565b7f57726f6e67207374617465000000000000000000000000000000000000000000600082015250565b6000614578600b83613157565b915061458382614542565b602082019050919050565b600060208201905081810360008301526145a78161456b565b9050919050565b7f5469746c65207265717569726564000000000000000000000000000000000000600082015250565b60006145e4600e83613157565b91506145ef826145ae565b602082019050919050565b60006020820190508181036000830152614613816145d7565b9050919050565b7f43617465676f7279207265717569726564000000000000000000000000000000600082015250565b6000614650601183613157565b915061465b8261461a565b602082019050919050565b6000602082019050818103600083015261467f81614643565b9050919050565b7f427564676574206d757374206265203e20300000000000000000000000000000600082015250565b60006146bc601283613157565b91506146c782614686565b602082019050919050565b600060208201905081810360008301526146eb816146af565b9050919050565b7f446561646c696e65206d75737420626520696e20667574757265000000000000600082015250565b6000614728601a83613157565b9150614733826146f2565b602082019050919050565b600060208201905081810360008301526147578161471b565b9050919050565b600061476982613099565b91507fffffffffffffffffffffffffffffffffffffffffffffffffffffffffffffffff820361479b5761479a613ae5565b5b600182019050919050565b600060608201905081810360008301526147c081866131a3565b90506147cf60208301856130fc565b6147dc60408301846130fc565b949350505050565b7f43616e6e6f742064697370757465000000000000000000000000000000000000600082015250565b600061481a600e83613157565b9150614825826147e4565b602082019050919050565b600060208201905081810360008301526148498161480d565b9050919050565b7f42616420726563697069656e7400000000000000000000000000000000000000600082015250565b6000614886600d83613157565b915061489182614850565b602082019050919050565b600060208201905081810360008301526148b581614879565b9050919050565b7f496e73756666696369656e742066656573000000000000000000000000000000600082015250565b60006148f2601183613157565b91506148fd826148bc565b602082019050919050565b60006020820190508181036000830152614921816148e5565b9050919050565b7f496e76616c69642062696420696e646578000000000000000000000000000000600082015250565b600061495e601183613157565b915061496982614928565b602082019050919050565b6000602082019050818103600083015261498d81614951565b9050919050565b7f4e487b7100000000000000000000000000000000000000000000000000000000600052603260045260246000fd5b7f496e76616c696420667265656c616e6365720000000000000000000000000000600082015250565b60006149f9601283613157565b9150614a04826149c3565b602082019050919050565b60006020820190508181036000830152614a28816149ec565b9050919050565b7f426964646572206e6f7420667265656c616e6365720000000000000000000000600082015250565b6000614a65601583613157565b9150614a7082614a2f565b602082019050919050565b60006020820190508181036000830152614a9481614a58565b9050919050565b7f57726f6e6720657363726f7720616d6f756e7400000000000000000000000000600082015250565b6000614ad1601383613157565b9150614adc82614a9b565b602082019050919050565b60006020820190508181036000830152614b0081614ac4565b9050919050565b6000614b1282613099565b9150614b1d83613099565b9250817fffffffffffffffffffffffffffffffffffffffffffffffffffffffffffffffff0483118215151615614b5657614b55613ae5565b5b828202905092915050565b7f4e487b7100000000000000000000000000000000000000000000000000000000600052601260045260246000fd5b6000614b9b82613099565b9150614ba683613099565b925082614bb657614bb5614b61565b5b828204905092915050565b600081905092915050565b50565b6000614bdc600083614bc1565b9150614be782614bcc565b600082019050919050565b6000614bfd82614bcf565b9150819050919050565b7f5061796d656e74206661696c6564000000000000000000000000000000000000600082015250565b6000614c3d600e83613157565b9150614c4882614c07565b602082019050919050565b60006020820190508181036000830152614c6c81614c30565b905091905056fea2646970667358221220585707b4c1a43affd3a7b9ea2394b8e3a60640910b1dd90e25330bfc8be24f2364736f6c63430008100033",
  "immutableReferences": {},
  "source": "// SPDX-License-Identifier: GPL-3.0\r\npragma solidity ^0.8.16;\r\n\r\ncontract FreelanceMarketplace {\r\n\r\n    constructor() {\r\n        arbiter = msg.sender;\r\n\r\n        users[msg.sender] = User(\r\n            \"Admin\",\r\n            Role.Arbiter,\r\n            0,\r\n            true\r\n        );\r\n    }\r\n\r\n    enum Role {Arbiter, Client, Freelancer}\r\n    address public arbiter;\r\n\r\n    enum JobStatus {Open, InProgress, Completed, Closed, Disputed, Resolved}\r\n    uint public jobCount = 0;\r\n    uint public collectedFees = 0;\r\n\r\n    event ClientRegistered(address indexed client, string name);\r\n    event FreelancerRegistered(address indexed freelancer, string name);\r\n    event JobPosted(uint indexed jobId, address indexed client, string title, uint maxBudget, uint deadline);\r\n    event BidPlaced(uint indexed jobId, address indexed freelancer, uint amount, uint timeRequired);\r\n    event FreelancerHired(uint indexed jobId, address indexed client, address indexed freelancer, uint amount);\r\n    event WorkMarkedCompleted(uint indexed jobId, address indexed freelancer);\r\n    event WorkApproved(uint indexed jobId, address indexed client, address indexed freelancer, uint paidToFreelancer, uint fee);\r\n    event DisputeRaised(uint indexed jobId, address indexed client);\r\n    event DisputeResolved(uint indexed jobId, bool paidFreelancer, uint winnerPaid, uint fee);\r\n    event FeesWithdrawn(address indexed arbiter, uint amount);\r\n\r\n    struct User {\r\n        string name;\r\n        Role role;\r\n        uint reputation;     \r\n        bool registered;\r\n    }\r\n\r\n    mapping(address => User) public users;\r\n\r\n\r\n\r\n    function registerClient(string memory _name) public {\r\n        require(!users[msg.sender].registered, \"Already registered\");\r\n        require(bytes(_name).length > 0, \"Name required\");\r\n\r\n        users[msg.sender] = User(\r\n            _name,\r\n            Role.Client,\r\n            0,\r\n            true\r\n        );\r\n\r\n        emit ClientRegistered(msg.sender, _name);\r\n    }\r\n\r\n    function registerFreelancer(string memory _name) public {\r\n        require(!users[msg.sender].registered, \"Already registered\");\r\n        require(bytes(_name).length > 0, \"Name required\");\r\n\r\n        users[msg.sender] = User(\r\n            _name,\r\n            Role.Freelancer,\r\n            100,\r\n            true\r\n        );\r\n\r\n        emit FreelancerRegistered(msg.sender, _name);\r\n    }\r\n\r\n    modifier onlyArbiter() {\r\n        require(msg.sender == arbiter, \"Only arbiter allowed\");\r\n        _;\r\n    }\r\n\r\n    modifier onlyClient() {\r\n        require(users[msg.sender].role == Role.Client, \"Only client allowed\");\r\n        _;\r\n    }\r\n\r\n    modifier onlyFreelancer() {\r\n        require(users[msg.sender].role == Role.Freelancer, \"Only freelancer allowed\");\r\n        _;\r\n    }\r\n\r\n    modifier jobExists(uint _jobId) {\r\n        require(_jobId > 0 && _jobId <= jobCount, \"Job does not exist\");\r\n        require(jobs[_jobId].id != 0, \"Job not found\");\r\n        _;\r\n    }\r\n\r\n    modifier onlyJobClient(uint _jobId) {\r\n        require(jobs[_jobId].client == msg.sender, \"Not job client\");\r\n        _;\r\n    }\r\n\r\n    struct Job {\r\n        uint id;\r\n        address client;\r\n        string title;\r\n        string category;\r\n        uint maxBudget;\r\n        uint deadline;\r\n        JobStatus status;\r\n\r\n        address freelancer;\r\n        uint agreedAmount; \r\n    }\r\n\r\n    mapping(uint => Job) public jobs;\r\n\r\n    struct Bid {\r\n        address freelancer;\r\n        uint amount;\r\n        uint timeRequired;\r\n    }\r\n\r\n    mapping(uint => Bid[]) public jobBids;\r\n    mapping(uint => mapping(address => bool)) private hasBid;\r\n\r\n    bool private locked;\r\n\r\n    modifier nonReentrant() {\r\n        require(!locked, \"Reentrancy\");\r\n        locked = true;\r\n        _;\r\n        locked = false;\r\n    }\r\n\r\n    function postJob(\r\n        string memory _title,\r\n        string memory _category,\r\n        uint _budget,\r\n        uint _deadline\r\n    ) public onlyClient {\r\n        require(bytes(_title).length > 0, \"Title required\");\r\n        require(bytes(_category).length > 0, \"Category required\");\r\n        require(_budget > 0, \"Budget must be > 0\");\r\n        require(_deadline > block.timestamp, \"Deadline must be in future\");\r\n\r\n        jobCount++;\r\n\r\n        jobs[jobCount] = Job(\r\n            jobCount,\r\n            msg.sender,\r\n            _title,\r\n            _category,\r\n            _budget,\r\n            _deadline,\r\n            JobStatus.Open,\r\n            address(0),\r\n            0\r\n        );\r\n\r\n        emit JobPosted(jobCount, msg.sender, _title, _budget, _deadline);\r\n    }\r\n\r\n    function placeBid(\r\n        uint _jobId,\r\n        uint _amount,\r\n        uint _time\r\n    ) public onlyFreelancer jobExists(_jobId) {\r\n        Job storage job = jobs[_jobId];\r\n\r\n        require(job.status == JobStatus.Open, \"Job not open\");\r\n        require(block.timestamp < job.deadline, \"Job deadline passed\");\r\n        require(_amount > 0, \"Amount must be > 0\");\r\n        require(_time > 0, \"Time must be > 0\");\r\n        require(_amount <= job.maxBudget, \"Over budget\");\r\n        require(users[msg.sender].reputation >= 50, \"Low reputation\");\r\n        require(!hasBid[_jobId][msg.sender], \"Already bid\");\r\n\r\n        hasBid[_jobId][msg.sender] = true;\r\n\r\n        jobBids[_jobId].push(\r\n            Bid(msg.sender, _amount, _time)\r\n        );\r\n\r\n        emit BidPlaced(_jobId, msg.sender, _amount, _time);\r\n    }\r\n\r\n    function hireFreelancer(\r\n        uint _jobId,\r\n        uint _bidIndex\r\n    ) public payable onlyClient jobExists(_jobId) onlyJobClient(_jobId) {\r\n        Job storage job = jobs[_jobId];\r\n\r\n        require(job.status == JobStatus.Open, \"Job not open\");\r\n        require(_bidIndex < jobBids[_jobId].length, \"Invalid bid index\");\r\n\r\n        Bid storage bid = jobBids[_jobId][_bidIndex];\r\n\r\n        require(bid.freelancer != address(0), \"Invalid freelancer\");\r\n        require(users[bid.freelancer].role == Role.Freelancer, \"Bidder not freelancer\");\r\n        require(block.timestamp < job.deadline, \"Job deadline passed\");\r\n        require(msg.value == bid.amount, \"Wrong escrow amount\");\r\n\r\n        job.freelancer = bid.freelancer;\r\n        job.agreedAmount = bid.amount;\r\n        job.status = JobStatus.InProgress;\r\n\r\n        emit FreelancerHired(_jobId, msg.sender, bid.freelancer, bid.amount);\r\n    }\r\n\r\n    function markWorkCompleted(uint _jobId)\r\n        public\r\n        onlyFreelancer\r\n        jobExists(_jobId)\r\n    {\r\n        Job storage job = jobs[_jobId];\r\n\r\n        require(job.freelancer == msg.sender, \"Not hired\");\r\n        require(job.status == JobStatus.InProgress, \"Wrong state\");\r\n\r\n        job.status = JobStatus.Completed;\r\n\r\n        emit WorkMarkedCompleted(_jobId, msg.sender);\r\n    }\r\n\r\n    function approveWork(uint _jobId)\r\n        public\r\n        onlyClient\r\n        jobExists(_jobId)\r\n        onlyJobClient(_jobId)\r\n        nonReentrant\r\n    {\r\n        Job storage job = jobs[_jobId];\r\n\r\n        require(job.status == JobStatus.Completed, \"Work not completed\");\r\n        require(job.freelancer != address(0), \"No freelancer\");\r\n        require(job.agreedAmount > 0, \"No escrow\");\r\n\r\n        uint fee = _computeFee(job.agreedAmount);\r\n        uint payment = job.agreedAmount - fee;\r\n\r\n        job.status = JobStatus.Closed;\r\n        job.agreedAmount = 0;\r\n\r\n        collectedFees += fee;\r\n        users[job.freelancer].reputation += 10;\r\n\r\n        _payout(payable(job.freelancer), payment);\r\n\r\n        emit WorkApproved(_jobId, msg.sender, job.freelancer, payment, fee);\r\n    }\r\n\r\n    function raiseDispute(uint _jobId)\r\n    public\r\n    onlyClient\r\n    jobExists(_jobId)\r\n    onlyJobClient(_jobId)\r\n    {\r\n    Job storage job = jobs[_jobId];\r\n    require(job.status == JobStatus.Completed, \"Cannot dispute\");\r\n\r\n    job.status = JobStatus.Disputed;\r\n\r\n    emit DisputeRaised(_jobId, msg.sender);\r\n    }\r\n\r\n    function resolveDispute(\r\n        uint _jobId,\r\n        bool payFreelancer\r\n    )\r\n        public\r\n        onlyArbiter\r\n        jobExists(_jobId)\r\n        nonReentrant\r\n    {\r\n        Job storage job = jobs[_jobId];\r\n        require(job.status == JobStatus.Disputed, \"No dispute\");\r\n        require(job.agreedAmount > 0, \"No escrow\");\r\n\r\n        uint amount = job.agreedAmount;\r\n\r\n        job.status = JobStatus.Resolved;\r\n        job.agreedAmount = 0;\r\n\r\n        if (payFreelancer) {\r\n            uint fee = _computeFee(amount);\r\n            uint paidToFreelancer = amount - fee;\r\n\r\n            collectedFees += fee;\r\n            _payout(payable(job.freelancer), paidToFreelancer);\r\n\r\n            emit DisputeResolved(_jobId, true, paidToFreelancer, fee);\r\n        } else {\r\n            _payout(payable(job.client), amount);\r\n\r\n            if (users[job.freelancer].registered && users[job.freelancer].role == Role.Freelancer) {\r\n                if (users[job.freelancer].reputation >= 20) {\r\n                    users[job.freelancer].reputation -= 20;\r\n                } else {\r\n                    users[job.freelancer].reputation = 0;\r\n                }\r\n            }\r\n\r\n            emit DisputeResolved(_jobId, false, amount, 0);\r\n        }\r\n    }\r\n\r\n    function withdrawFees(address payable _to, uint _amount)\r\n        public\r\n        onlyArbiter\r\n        nonReentrant\r\n    {\r\n        require(_to != address(0), \"Bad recipient\");\r\n        require(_amount > 0, \"Amount must be > 0\");\r\n        require(_amount <= collectedFees, \"Insufficient fees\");\r\n\r\n        collectedFees -= _amount;\r\n        _payout(_to, _amount);\r\n\r\n        emit FeesWithdrawn(_to, _amount);\r\n    }\r\n\r\n    function _computeFee(uint _agreedAmount) internal pure returns (uint fee) {\r\n        if (_agreedAmount < 1 ether) {\r\n            fee = (_agreedAmount * 2) / 100;\r\n        } else {\r\n            fee = (_agreedAmount * 1) / 100;\r\n        }\r\n    }\r\n\r\n    function _payout(address payable _to, uint _amount) internal {\r\n        (bool ok, ) = _to.call{value: _amount}(\"\");\r\n        require(ok, \"Payment failed\");\r\n    }\r\n}\r\n",
  "sourcePath": "C:\\Users\\SkyN3\\OneDrive\\Desktop\\FreelanceDApp\\contracts\\FreelanceMarketplace.sol",
  "compiler": {
    "name": "solc",
    "version": "0.8.16+commit.07a7930e.Emscripten.clang"
  },
  "schemaVersion": "3.4.16",
  "updatedAt": "2025-12-30T05:22:36.652Z",
  "networkType": "ethereum",
  "devdoc": {
    "kind": "dev",
    "methods": {},
    "version": 1
  },
  "userdoc": {
    "kind": "user",
    "methods": {},
    "version": 1
  }
}